S02200004C45445F4D61747269785F576561746865725F446973706C61792E73726563F5
S113000010C02AC029C028C027C026C025C024C0CB
S113001023C022C021C020C01FC01EC01DC01CC0E0
S11300201BC011241FBECFE5D2E0DEBFCDBF10E060
S1130030A0E6B0E0E0EFF2E002C005900D92A83730
S1130040B107D9F720E0A8E7B0E001C01D92A837B6
S1130050B207E1F7CED04AC1D3CF8BB380618BBB5B
S11300608BB380648BBB1FB800008DB181608DB9E8
S113007008958BB38F7E8BBB8BB38F7B8BBB0000C0
S11300808BB380618BBB00008BB380648BBB80E837
S11300908FB9089520E030E017C02115310511F41F
S11300A08FB903C09DB192609DB900C000009DB19D
S11300B091609DB900C000C000009DB191609DB9E0
S11300C000C000002F5F3F4F2830310534F31FB8C4
S11300D000C000008DB181608DB900C000C0000077
S11300E08DB181608DB900C000000895779B03C075
S11300F09BB398609BBB9EB19F779EB99EB1906461
S11301009EB99EB1907F9EB920E030E01AC02115BF
S1130110310529F400C000C000008FB903C09DB1AF
S113012092609DB900C000009DB191609DB900C06E
S113013000C000009DB191609DB900C000002F5F18
S11301403F4F283031051CF300C000008DB18160A1
S11301508DB900C000C000008DB181608DB900C0B0
S11301600000089527E030E090E00EC080FF09C051
S113017041E050E0022E02C0440F551F0A94E2F7FA
S1130180942B869521503109332384F790FF04C0C2
S11301909695892F80680895892F86950895CF9321
S11301A0C82F5BDF8C2FA2DF80E074DF80E072DF7A
S11301B080E070DF80E06EDF80E06CDF80E06ADF8B
S11301C080E068DF80E066DF80E064DF80E062DF9B
S11301D080E060DF80E05EDF80E05CDF80E05ADFAB
S11301E080E058DF80E056DF80E054DF42DFCF91CB
S11301F008958AB388608ABB78948DB180628DB982
S11302008DB1837F8DB98AB380658ABB8BB38061DE
S11302108BBB8BB380648BBB8FB18FEF8FB983E0C3
S11302208A95F1F7000000E010E05BC001151105AC
S113023011F4C0EE01C0C2EE10DF8C2F57DF81E253
S113024029DF17DF83E08A95F1F7000006DF8C2FA2
S11302504DDF80EA1FDF0DDF83E08A95F1F70000B0
S1130260FCDE8C2F43DF81EE15DF03DF83E08A950C
S1130270F1F70000F2DE8C2F39DF81E80BDFF9DEC5
S113028083E08A95F1F700008C2F89DF83E08A955B
S1130290F1F70000E2DE8C2F29DF80E0FBDEC0E016
S11302A0D0E019C0FE01E05AFF4F2081FE01E05961
S11302B0FF4F808190E0880F991FFE01E859FF4F9E
S11302C09081822B969596959695892B4BDFE2DE4D
S11302D080E0E0DE2196C830D10524F3CADE0F5F4A
S11302E01F4F023011050CF4A1CFFFCFF894FFCFBC
S11302F0001C000000000000000000380808080886
S10B0300000000382828283809
S9030000FC
