:1000000010C02AC029C028C027C026C025C024C0CF
:1000100023C022C021C020C01FC01EC01DC01CC0E4
:100020001BC011241FBECFE5D2E0DEBFCDBF10E064
:10003000A0E6B0E0ECE7F3E002C005900D92A03737
:10004000B107D9F720E0A0E7B0E001C01D92A037CA
:10005000B207E1F70CD190C1D3CF8BB380618BBBDA
:100060008BB380648BBB1FB889EF90E00197F1F7E9
:1000700000C000008DB181608DB908958BB38F7E73
:100080008BBB8BB38F7B8BBB89EF90E00197F1F734
:1000900000C000008BB380618BBB89EF90E00197BB
:1000A000F1F700C000008BB380648BBB80E88FB990
:1000B000089520E030E022C02115310511F48FB9F8
:1000C00003C09DB192609DB9E0E7F2E03197F1F78E
:1000D00000C000009DB191609DB9E1EEF4E0319760
:1000E000F1F700C000009DB191609DB9E0E7F2E03A
:1000F0003197F1F700C000002F5F3F4F28303105E6
:10010000DCF21FB880E792E00197F1F700C0000031
:100110008DB181608DB9E1EEF4E03197F1F700C067
:1001200000008DB181608DB980E792E00197F1F711
:1001300000C000000895779B03C09BB398609BBBF1
:100140009EB19F779EB99EB190649EB99EB1907FFB
:100150009EB920E030E028C02115310541F4E1EEE0
:10016000F4E03197F1F700C000008FB903C09DB1F2
:1001700092609DB9E0E7F2E03197F1F700C000002E
:100180009DB191609DB9E1EEF4E03197F1F700C0C7
:1001900000009DB191609DB9E0E7F2E03197F1F781
:1001A00000C000002F5F3F4F28303105ACF280E7E0
:1001B00092E00197F1F700C000008DB181608DB928
:1001C000E1EEF4E03197F1F700C000008DB18160FD
:1001D0008DB980E792E00197F1F700C00000089523
:1001E00027E030E090E00EC080FF09C041E050E021
:1001F000022E02C0440F551F0A94E2F7942B8695F5
:1002000021503109332384F790FF04C09695892F3C
:1002100080680895892F86950895CF93C82F1DDF94
:100220008C2F89DF80E045DF80E043DF80E041DF25
:1002300080E03FDF80E03DDF80E03BDF80E039DFD2
:1002400080E037DF80E035DF80E033DF80E031DFE2
:1002500080E02FDF80E02DDF80E02BDF80E029DFF2
:1002600080E027DF80E025DF09DFCF9108958AB3A2
:1002700088608ABB78948DB180628DB98DB1837F9F
:100280008DB98AB380658ABB8BB380618BBB8BB31E
:1002900080648BBB8FB18FEF8FB983EC99E00197AE
:1002A000F1F700C0000000E010E061C00115110589
:1002B00011F4C0EE01C0C2EED0DE8C2F3CDF81E233
:1002C000F8DEDCDE83EC99E00197F1F700C0000076
:1002D000C4DE8C2F30DF80EAECDED0DE83EC99E0E8
:1002E0000197F1F700C00000B8DE8C2F24DF8FEEFD
:1002F000E0DEC4DE83EC99E00197F1F700C0000076
:10030000ACDE8C2F18DF81E8D4DEB8DE83EC99E018
:100310000197F1F700C000008C2F7FDF83EC99E09C
:100320000197F1F700C0000098DE8C2F04DF80E019
:10033000C0DEC0E0D0E015C0FE01E05AFF4F808172
:1003400090E0880F991F880F991FFE01E859FF4F11
:10035000908196959695892B43DFABDE80E0A9DEF0
:100360002196C830D10544F389DE0F5F1F4F02305C
:0C03700011050CF49BCFFFCFF894FFCFD9
:10037C0004040404040404043C2424242424243C01
:00000001FF
